{
  "contractName": "HelloWorld",
  "abi": [
    {
      "inputs": [],
      "name": "hello",
      "outputs": [
        {
          "internalType": "string",
          "name": "",
          "type": "string"
        }
      ],
      "stateMutability": "pure",
      "type": "function",
      "constant": true
    }
  ],
  "bytecode": "0x608060405234801561001057600080fd5b5061011e806100206000396000f3fe6080604052348015600f57600080fd5b506004361060285760003560e01c806319ff1d2114602d575b600080fd5b603360ab565b6040518080602001828103825283818151815260200191508051906020019080838360005b8381101560715780820151818401526020810190506058565b50505050905090810190601f168015609d5780820380516001836020036101000a031916815260200191505b509250505060405180910390f35b60606040518060400160405280600c81526020017f48656c6c6f20576f726c6421000000000000000000000000000000000000000081525090509056fea26469706673582212202b2696ce2b3312b344f3d63bbfe7780c8a4e9dd3ce49e7e1ddd1725c899ef5b464736f6c63430007060033",
  "immutableReferences": {},
  "source": "//SPDX-License-Identifier: UNLICENSED\r\npragma solidity >=0.7.6 <0.8.0;\r\n\r\ncontract HelloWorld {\r\n\tfunction hello() public pure returns (string memory) {\r\n        return \"Hello World!\";\r\n    }\r\n}\r\n",
  "sourcePath": "/mnt/c/Users/Yacine/Desktop/DappTemplate/contracts/HelloWorld.sol",
  "compiler": {
    "name": "solc",
    "version": "0.7.6+commit.7338295f.Emscripten.clang"
  },
  "schemaVersion": "3.4.7",
  "updatedAt": "2022-04-11T20:35:29.984Z",
  "networkType": "ethereum",
  "devdoc": {
    "kind": "dev",
    "methods": {},
    "version": 1
  },
  "userdoc": {
    "kind": "user",
    "methods": {},
    "version": 1
  }
}